:020000040800F2
:10000000E0050020010100085F0F0008370E00081E
:100010005D0F0008BD010008F91500080000000090
:10002000000000000000000000000000391000087F
:10003000BF01000800000000810F00083B15000808
:100040001B0100081B0100081B0100081B01000820
:100050001B0100081B0100081B0100081B01000810
:100060001B0100081B0100081B0100081B01000800
:100070001B0100081B0100081B0100081B010008F0
:100080001B0100081B0100081B0100081B010008E0
:100090001B0100081B0100081B0100081B010008D0
:1000A0001B0100081B0100081B0100081B010008C0
:1000B0001B0100081B0100081B0100081B010008B0
:1000C0001B0100081B0100081B0100081B010008A0
:1000D0001B0100081B0100081B0100081B01000890
:1000E0001B0100081B0100081B010008DFF80CD0F1
:1000F00000F052F800480047C5190008E00500204C
:100100000648804706480047FEE7FEE7FEE7FEE7B1
:10011000FEE7FEE7FEE7FEE7FEE7FEE7B1150008B3
:10012000ED00000840EA01039B0703D009E008C97D
:10013000121F08C0042AFAD203E011F8013B00F8AC
:10014000013B521EF9D27047D2B201E000F8012BF8
:10015000491EFBD270470022F6E710B513460A4647
:1001600004461946FFF7F0FF204610BD30B50B4698
:10017000014600202022012409E021FA02F59D42D7
:1001800005D303FA02F5491B04FA02F52844151EAB
:10019000A2F10102F1DC30BD064C074D06E0E0683B
:1001A00040F0010394E8070098471034AC42F6D3BE
:1001B000FFF7A0FF8C1C0008AC1C0008FEE770478E
:1001C00031B500F0F3F8009C0546601C00D0641CBB
:1001D00000F0ECF8401BA042FAD338BD2DE9F84FEF
:1001E000DFF890A100220AF1040B144601274FF01A
:1001F0000F090BF1040E00BF0B6807FA04F52B4042
:10020000AB4274D1DFF870C14E68A6EB0C086645AE
:100210002BD00DDC032E34D005DC36B3012E19D0E3
:10022000022E2FD11BE0112E16D0122E2AD119E04A
:10023000B8F5881F19D006DCB8F5803F15D0B8F5A1
:10024000801F1FD111E0B8F5001F0ED0B8F5041FB4
:1002500018D10AE0CA6815E0CA68121D12E0CA681F
:1002600008320FE0CA680C320CE08A682AB1012A11
:100270004FF0080203D0456104E0042202E005616A
:1002800000E00022FF2B01D8064601E000F1040641
:100290004FEA840501D9A5F12005D6F800C009FA76
:1002A00005F82CEA080C02FA05F54CEA050CC6F82C
:1002B00000C04D68ED0057D5304DAE6946F00106DF
:1002C000AE61AD6924F0030605F0010500952C4DE3
:1002D00006EB050CDCF80850A6074FEA167809FA79
:1002E00008F6B543274EB04202D1002610E03BE0AD
:1002F000254EB04201D101260AE0244EB04201D180
:10030000022605E0224EB04201D1032600E0042679
:1003100006FA08F62E43CCF808604D68DAF800605B
:10032000ED03554601D51E4300E09E432E604D6807
:10033000DBF80060AD035D4601D51E4300E09E433F
:100340002E604D68DEF80060ED02754601D51E4353
:1003500000E09E432E604D68AD020E4D2E6801D523
:100360001E4300E09E432E60641C102CFFF444AF3B
:10037000BDE8F88F00040140000011100010024099
:100380000000014000080140000C01400010014045
:10039000001401400C0401408068084000D0012096
:1003A00070470AB1016170470904FBE70148006822
:1003B000704700001000002002480168491C0160DD
:1003C0007047000010000020074810B5016841F098
:1003D00010010160032000F07FF8002000F006F813
:1003E00000F018F8002010BD0020024010B50446AF
:1003F00007484FF47A710068B0FBF1F000F003FD9C
:1004000000222146501E00F047F8002010BD0000D9
:10041000140000201E4808B5816941F00101816186
:10042000806900F001000090032000F055F80022E0
:1004300011466FF00B0000F02FF8002211466FF00C
:100440000A0000F029F8002211466FF0090000F0C0
:1004500023F800221146501F00F01EF8002211461A
:10046000101F00F019F800221146901E00F014F839
:1004700000221146501E00F00FF80648416821F096
:10048000E0614160416841F00071416008BD0000D9
:100490000010024000000140F0B40E4B1B680C46F7
:1004A000C3F30223C3F10705042D00D90425191D48
:1004B000072901D2002300E0DB1E012606FA05F120
:1004C000491E214099409E40761E16403143F0BCA3
:1004D00000F046BD0CED00E0064900F00702086898
:1004E0004FF6FF03184040EA0220034A1043086019
:1004F000704700000CED00E00000FA052DE9F04720
:10050000DFF83C8105460E46D8F8000000F00700F1
:10051000B0420CD2D8F8001021F007013143C8F8DE
:100520000010D8F8000000F00700B04263D128782E
:10053000444C800705D56068A96820F0F0000843A6
:1005400060602878C00745D06868012816D0216807
:10055000022816D0890700294DDA616821F00301CD
:1005600001436160FFF722FF6968074641F2883066
:1005700001290FD00229814619D027E0216889037B
:10058000E9E78901E7E700BFFFF710FFC11B494515
:1005900001D918E081466068C0F381000128F3D1D9
:1005A00018E000BFFFF702FFC11B49450BD8606888
:1005B000C0F381000228F5D10CE000BFFFF7F6FE82
:1005C000C11B494502D90320BDE8F087606810F0DF
:1005D0000C0FF3D1D8F80010404601F00701B142EA
:1005E0000BD9016821F0070131430160006800F078
:1005F0000700B04201D00120E6E72878400705D582
:100600006068E96820F4E0600843606028780007CB
:1006100006D56068296920F4605040EAC100606036
:1006200000F01CF86168084AC1F30311515CC8402E
:10063000064908600020FFF7D9FE0020C4E700004B
:1006400000200240001002407C1C00081400002022
:1006500001480068704700001400002010B512A384
:1006600085B00FCB8DE80F0013A0144B00680490E9
:100670005A68134802F00C0104290FD008290DD143
:10068000C2F38344D2031DF8041009D55A6804ABA1
:10069000C2F340429A5CB0FBF2F0484305B010BD93
:1006A00008484843FAE70000020304050607080962
:1006B0000A0B0C0D0E0F101001020000001002407A
:1006C00000127A0000093D002DE9F84F0446007839
:1006D000B94DC00748D06868C0F38100012807D031
:1006E0006868C0F38100022809D16868C00306D594
:1006F0002868800338D5606800286FD034E06068CF
:10070000B0F5803F0BD010B1B0F5A02F11D0286804
:1007100020F480302860286820F4802002E02868D7
:1007200040F480302860606888B1FFF73FFE0646DD
:1007300009E0286840F480202860F0E7FFF736FEE3
:10074000801B642875D828688003F7D50CE0FFF774
:100750002DFE064605E000BFFFF728FE801B64283B
:10076000F0D828688003F7D42078944E80074FF0A3
:1007700001094FF000083BD5686810F00C0F07D056
:100780006868C0F38100022809D16868C00306D4F4
:100790002868800714D5206901281FD110E020693E
:1007A000B0B1C6F80090FFF701FE074605E000BFB4
:1007B000FFF7FCFDC01B0228C4D828688007F7D5C6
:1007C0002868616920F0F80040EAC10028600FE065
:1007D000C6F80080FFF7EAFD074606E0E9E000BF43
:1007E000FFF7E4FDC01B022823D828688007F7D450
:1007F000207800072CD57248A169D9B1C0F80090C3
:10080000FFF7D4FD074604E0FFF7D0FDC01B022828
:100810000FD8686A8007F7D56A484FF4FA51006824
:10082000B0FBF1F0009000BF0098411E0091FAD299
:100830000EE080E0C0F80080FFF7B8FD074604E056
:10084000FFF7B4FDC01B022875D8686A8007F7D48B
:100850002078400760D5E8690027C00008D4E8691F
:1008600040F08050E861E869012700F08050009076
:1008700055480168C90513D40168834641F4807165
:100880000160FFF793FD824606E000BFFFF78EFD93
:10089000A0EB0A0064284ED8DBF80000C005F5D5AF
:1008A000E06801280AD008B1052813D0286A20F092
:1008B00001002862286A20F0040002E0286A40F063
:1008C00001002862E06841F2883B98B1FFF76EFDB5
:1008D00082460BE0286A40F004002862EEE700BF81
:1008E000FFF764FDA0EB0A0159455AD8286A800732
:1008F000F6D50CE0FFF75AFD824605E0FFF756FDFE
:10090000A0EB0A0159454CD8286A8007F6D41FB1DC
:10091000E86920F08050E861E06988B36968C1F354
:100920008101022945D00228C6F8608004D0FFF773
:100930003DFD044638E034E0FFF738FD074604E0AB
:10094000FFF734FDC01B02282BD828688001F7D49C
:10095000206AB0F5803F05D16868A16820F40030B6
:1009600008436860D4E908010843696821F47411F8
:1009700008436860C6F86090FFF718FD044606E07B
:1009800015E000BFFFF712FD001B022809D82868F8
:100990008001F7D50BE000BFFFF708FD001B022820
:1009A00002D90320BDE8F88F28688001F4D4002024
:1009B000F8E70120F6E70000001002400000424284
:1009C00080044242140000200070004090F8510062
:1009D000704770B5040005D00025A56294F8510059
:1009E00010B104E0012070BD204600F033F8022071
:1009F00084F851002068016821F040010160D4E9C9
:100A000001010843D4E90312114308436169084313
:100A1000218B01F400710843E1690843216A08430E
:100A2000A16A084321680860A069042101EA104016
:100A3000616A0843216848602168E06A08612068AB
:100A4000C16921F40061C1616565012084F851002C
:100A5000002070BD10B50068114986B088421CD1D5
:100A60001048816941F48051816180690E4C00F425
:100A700080500490A0200090022001900320039059
:100A800069462046FFF7AAFB00214020CDE900017E
:100A9000029169462046FFF7A1FB06B010BD000099
:100AA0000030014000100240000801402DE9F84FDD
:100AB000044690F850000026994617460D46012836
:100AC0000DD04FF0010B84F850B0FFF76FFC80465B
:100AD00094F85100B246012804D0022694E0022086
:100AE000BDE8F88F002D7BD0002F79D0032084F84B
:100AF0005100C4F854A02563A786E786C4F838A03F
:100B0000A4F83CA0A4F83EA0C4F844A0C4F840A0B7
:100B1000A068B0F5004F04D12068016841F480411D
:100B2000016020680168490603D4016841F0400172
:100B30000160E068B0F5006F606804D030B3E08E0B
:100B4000012823D03EE010B1E08E01281AD135F8FB
:100B5000021B206805E020688168890706D535F802
:100B6000021BC160E08E401EE0860BE0B9F1000F71
:100B700034D0B9F1FF3F05D0FFF718FCA0EB080116
:100B800049452BD2E08E0028E5D11EE0216815F8FA
:100B9000010B087306E020688168890706D515F8FF
:100BA000011B0173E08E401EE0860BE0B9F1000FDF
:100BB00014D0B9F1FF3F05D0FFF7F8FBA0EB080117
:100BC00049450BD2E08E0028E5D14B460122022197
:100BD0002046CDF8008000F0E4F910B1032613E0C0
:100BE00011E042464946204600F0CBF918B10126F3
:100BF0002020606508E0A06818B92068C168806896
:100C00000090606D00B1012684F851B084F850A0C6
:100C1000304665E72DE9F84F044690F8500000266D
:100C20000A9F9A4693460D464FF0010801280ED0C0
:100C3000012084F85000FFF7B9FB814694F8510079
:100C4000616801280CD0B1F5827F07D102E0022053
:100C5000BDE8F88FA16809B9042801D00226BDE0DB
:100C600055B1BBF1000F07D0BAF1000F04D094F8D2
:100C70005100012802D004E00126AFE0052084F8ED
:100C8000510000206065C4F838B0A4F83EA0A4F874
:100C90003CA02563A4F836A0A4F834A020646064C6
:100CA00020680168490603D4016841F040010160F1
:100CB000E068B0F5006F606804D0E8B3E08E01280A
:100CC0003BD06AE010B1E08E01282ED1216835F8C2
:100CD000020BC860E08E401EE08626E0B8F1000FEF
:100CE0000DD0E08E58B120688168890707D535F8A6
:100CF000021BC160E08E401EE0864FF00008E08FCE
:100D000058B120688168C90707D0C0682BF8020B6A
:100D1000E08F401EE0874FF00108781C05D0FFF7F8
:100D200045FBA0EB0900B84246D2E08E0028D5D1A1
:100D3000E08F0028D2D136E0FFE7216815F8010BDB
:100D40000873E08E401EE08627E000BFB8F1000F78
:100D50000DD0E08E58B120688168890707D515F855
:100D6000011B0173E08E401EE0864FF00008E08F0B
:100D700058B120688168C90707D0C0680BF8010B1B
:100D8000E08F401EE0874FF00108781C05D0FFF788
:100D90000DFBA0EB0900B8420ED2E08E0028D5D1A1
:100DA000E08F0028D2D13B46012202212046CDF817
:100DB000009000F0F6F808B103260FE04A463946E5
:100DC000204600F0DEF818B101262020606505E01D
:100DD000A06818B92068C16880680090012084F874
:100DE0005100002084F85000304631E74FF0E021F8
:100DF0000428086903D020F004000861704740F01F
:100E00000400FAE7704710B5401EB0F1807F01D3AF
:100E1000012010BD4FF0E02460610F21601700F049
:100E20009FF80020A06107202061002010BD10B5B0
:100E3000FFF7E8FF10BDFEE72DE9F0412C4886B032
:100E4000816941F010018161816901F01001049113
:100E5000816941F020018161816901F020010491E3
:100E6000816941F004018161816901F0040104910B
:100E7000816941F0080181618069012200F0080068
:100E80001C4E5403049021463046FFF78AFA1A4F4D
:100E9000012210213846FFF784FADFF86080012232
:100EA00002214046FFF77DFA0125CDE900450224E5
:100EB000694630460394FFF791F91020CDE900050B
:100EC000694603943846FFF789F905200090002011
:100ED0000190029069464046FFF780F9CDE9004550
:100EE000694640460394FFF779F906B0BDE8F08102
:100EF000001002400010014000080140000C0140B9
:100F0000114810B50F4901604FF482714160002112
:100F10008160C1604FF400720161C0E905120822CE
:100F2000C0E90721416281620A21C162FFF751FDD8
:100F3000002805D0BDE81040452104A000F05DBBAD
:100F400010BD000000300140840100202E2E2F53E0
:100F500072632F7370692E6300000000FEE7704714
:100F60000907090E002806DA00F00F0000F1E02062
:100F700080F8141D704700F1E02080F800147047DD
:100F8000704738B50B46009204460022802100F0DD
:100F900008F8002804D0606D40F020006065032050
:100FA00038BD2DE9F0411D4617460E460446DDF8D2
:100FB000188035E0681C33D02DB1FFF7F7F9A0EBAE
:100FC0000800A8422CD32068416821F0E00141606C
:100FD0006068B0F5827F0BD1A068B0F5004F02D0F9
:100FE000B0F5806F04D12068016821F040010160F4
:100FF000A06AB0F5005F0AD1206801684DF6FF7263
:10100000114001602068016841F400510160012035
:1010100084F85100002084F850000320BDE8F081DE
:101020002068806836EA000004D00020B842C1D1B0
:101030000020F3E70120F9E7704770B515460E462A
:101040000446017200F0DCF984224D21204600F0B4
:1010500027F9FF222421204600F022F90122402115
:10106000204600F01DF93F221121204600F018F91A
:10107000204600F042F932462221204600F010F9C5
:101080000F21204600F0FDF802460D21204600F019
:1010900007F98D220121204600F002F9002084F892
:1010A0000A011821204600F0ECF8400703D5032080
:1010B0006072012070BD6D1E03D0012000F0ADF9FB
:1010C000EFE7206800F0B5F9204600F099F900201C
:1010D00070BD70B516460C460546017200F090F9D9
:1010E00087224D21284600F0DBF8002224212846E3
:1010F00000F0D6F841224021284600F0D1F82846D9
:1011000000F0FBF8F7221121284600F0C9F822462A
:101110002221284600F0C4F80E21284600F0B1F83C
:1011200002460D21284600F0BBF82221284600F097
:10113000A8F8A04203D102206872012070BD761E7B
:10114000F3D1286800F075F9284600F059F900201D
:1011500070BD70B50446006800F061F908B304F191
:101160000A004FF480710646FEF7F5FF1021204675
:1011700000F087F802460D21204600F091F8A07992
:1011800090B11321204600F07CF805462B463246EC
:101190000021204600F035F884F80A51204600F07E
:1011A000ACF894F80A0170BD257AEFE770B51D46DA
:1011B00013460A460446002100F042F88B22012122
:1011C000204600F06DF8206800F029F958B112218E
:1011D000204600F056F8204600F08FF8204600F038
:1011E000A3F9012070BD6D1E03D0012000F015F998
:1011F000E9E7206800F01DF9204600F001F9002021
:1012000070BD2DE9F0411E4617460C460546012BE0
:1012100014D90021286800F052F92146286800F00E
:1012200020F9002404E000F02EF93855641CE4B2E3
:101230002868B442F7D3012100F041F9BDE8F081FC
:101240002DE9F0411E4617460C460546012B16D9DE
:101250000021286800F033F944F08001286800F08C
:1012600000F9002405E0395D286800F0FAF8641CF4
:10127000E4B2B442F7D30121286800F020F9BDE8B8
:10128000F08170B50446006800F0EBF8206800F0CB
:10129000FAF805460121206800F011F9284670BDD2
:1012A00070B50D46044616460068002100F007F9A7
:1012B00045F08001206800F0D4F83146206800F045
:1012C000D0F80121206800F0FAF870BD2DE9F04750
:1012D0000446DDE908891D4616460F46006800F001
:1012E000F8F827716671A57184F8078084F8089072
:1012F0002046BDE8F04700F083B8FF221221FFF737
:10130000CFBF00002DE9F0411C4615460F46804630
:10131000069E00F000F90F2000F07FF8404600F034
:1013200078F8364907EB4700421803230621404668
:10133000FFF786FF31480921C01C425D4046FFF798
:10134000AFFF0B2211464046FFF7AAFF23220C21D4
:101350004046FFF7A5FF294D0727ED1DE81D295D34
:10136000805D06292BD0022101EB0010C2B21D21A5
:101370004046FFF795FF285D1E2107EB0010C2B223
:101380004046FFF78DFFFF221F214046FFF788FFF1
:10139000002220214046FFF783FF0C2221214046F6
:1013A000FFF77EFF012241214046FFF779FF002130
:1013B000404688F80A11BDE8F04100F0B5B80321B5
:1013C00001EB0010C2B21D214046FFF769FF285D06
:1013D0001E2107EB0010C2B24046FFF761FF31212A
:1013E0004046FFF74EFF00F0F80040F005023121C3
:1013F0004046FFF755FF0C223721C1E7641C000867
:1014000008B5C1790091837942790179FFF77AFFB4
:1014100008BD88220121FFF743BFFEF7D1BE10B5FA
:101420000189C06889B2FEF7B7FF012800D000200B
:1014300010BD10B50446012100F041F820880022BB
:1014400081B26068FEF7ADFF0120FFF7E6FF20885C
:10145000012281B26068FEF7A4FF6420FFF7DDFF80
:1014600010BD13B50446002100F029F84FF47A733B
:10147000012201A9A069FFF719FBA069FFF7A6FAED
:101480000128FAD11CBD3EB5044600208DF80800A5
:101490008DF804000146204600F011F84FF47A70F0
:1014A0000090012301AA02A9A069FFF7B3FBA0697C
:1014B000FFF78CFA0128FAD19DF804003EBD0129FE
:1014C00005D00022018A406989B2FEF76ABF012275
:1014D000F8E710B504460121FFF7F1FF208801224B
:1014E00081B26068BDE81040FEF75BBF70B505468D
:1014F00090F80A0114460E46A04200D00446224647
:1015000005F10A013046FEF70DFE0020305585F842
:101510000A01204670BD10B5044608220121FFF7DC
:10152000BFFE0020607210BD10B5044609220121E3
:10153000FFF7B6FE0120607210BD10B5FEF73CFF4C
:10154000BDE81040FFF773BC30B58FB0012108042F
:10155000CDE900100024029402250491CDE9075042
:101560004FF4E01009906846FFF7AEF800B1FEE7CF
:101570000F20CDE90A054FF48060CDE90C4002212F
:101580000AA80E94FEF7BAFF00B1FEE7FFF760F875
:101590004FF47A71B0FBF1F0FFF735FC0420FFF750
:1015A00025FC00221146501EFEF776FF0FB030BD1D
:1015B0000D48016841F00101016041680B4A11408A
:1015C000416001680A4A11400160016821F48021EC
:1015D0000160416821F4FE0141604FF41F01816008
:1015E0000449C00308607047001002400000FFF883
:1015F000FFFFF6FE08ED00E0FEE7FEE70FB4054B47
:1016000010B503A9044A029800F02CF810BC5DF84C
:1016100014FB0000B1190008180000200FB4084B9B
:1016200010B504A902AA039800F01CF8044602A908
:10163000002000F0B8F9204610BC5DF814FB000053
:10164000A719000802E008C8121F08C1002AFAD131
:1016500070477047002001E001C1121F002AFBD132
:10166000704700002DE9FF4F8BB0884605460026E5
:1016700006E025280BD0DDE90D1290476D1C761C85
:1016800028780028F5D10FB03046BDE8F08F00244F
:10169000A146A2460122AE4900E0044315F8013FED
:1016A000203B02FA03F00842F7D128782A2810D00C
:1016B0006FF02F022878A0F13001092915D809EB25
:1016C000890102EB410144F0020400EB01096D1CA9
:1016D000F0E758F8041B5FEA010903D544F400540D
:1016E000C9F1000944F002046D1C28782E2817D196
:1016F00015F8010F44F004042A280ED06FF02F02D1
:101700002878A0F1300109290AD80AEB8A0102EBF6
:10171000410100EB010A6D1CF2E758F804AB6D1CA7
:1017200028786C280FD006DC4C2817D068280DD0FC
:101730006A2814D104E0742810D07A280FD10DE063
:1017400044F400140AE044F4801401E044F440142A
:101750006978814202D104F580146D1C6D1C2878D3
:10176000692865D006DC00288DD0632827D064283E
:1017700006D15DE06E2808D073282AD0752877D06E
:10178000DDE90D129047761CE0E0C4F30250022818
:1017900009D003280DD0D8F8001004280DD00E6011
:1017A00008F10408D2E0D8F80010F217C1E900628D
:1017B000F6E7D8F800100E80F2E70E70F0E718F8A0
:1017C000041B8DF8001000208DF80100EB4601206D
:1017D00003E058F804BB4FF0FF3061074FF00007FB
:1017E00001D40AE07F1C57450DDA8742FADB1BF86B
:1017F00007100029F6D106E07F1C8742FCDB1BF8AE
:1018000007100029F8D1DDE90D23A9EB0700814677
:10181000214600F0B1F83044C61904E0DDE90D12AC
:101820001BF8010B90477F1EF8D22146484688E0FE
:1018300058F8040BC4F302514FF00A0B032900D1EE
:1018400000B2042900D140B2002802DA40422D2122
:1018500002E0210505D52B218DF82410012104E09B
:1018600006E0E10710D02021F6E708AF089113E069
:1018700058F8040BC4F302514FF00A0B032900D1AE
:1018800080B2042900D1C0B20021EEE75946FEF72C
:101890006DFC303107F8011D0028F7D1ADEB0700D2
:1018A00000F1200B600702D524F4803401E04FF0F2
:1018B000010ADA4502DDAAEB0B0000E000208246B7
:1018C00000EB0B0108980144A9EB01000A90E0032A
:1018D00006D4DDE90D2321460A9800F04DF80644B0
:1018E0004FF0000908E009A911F80900DDE90D121F
:1018F000904709F10109761C08998945F3DBE0035B
:101900000CD5DDE90D2321460A9800F035F8064490
:1019100004E0DDE90D1230209047761CBAF1000199
:10192000AAF1010AF5DC05E0DDE90D1217F8010B5B
:101930009047761CBBF10001ABF1010BF4DC0A9877
:101940002146DDE90D2300F005F806446D1C97E6FD
:10195000092801002DE9F041044600251E461746DE
:10196000880404D405E039462020B0476D1C641E6D
:10197000F9D52846BDE8F0812DE9F041044600255F
:101980001E469046C80301D5302700E02027880472
:1019900004D505E041463846B0476D1C641EF9D5B4
:1019A0002846BDE8F0810A68531C0B601070704730
:1019B00038B504468DF8000069460320ABBE2046CA
:1019C00038BD00001CB5FEF7FFFCFFF7BDFDFFF7BB
:1019D00033FAFFF795FA504D04212846FEF7DCFC58
:1019E0004E4C012820605ED04DA0FFF707FE01227B
:1019F00004212846FEF7D5FC4D480121C0E9021517
:101A00004C494161102101610221C0E900154A4998
:101A1000816100F11C01086048A0FFF7EFFD0A2179
:101A20000320CDE9000142480223012200211C309D
:101A3000FFF74CFC48A0FFF7E1FD20684FF4FA6582
:101A400001283B482A464FF0100100F11C002FD01E
:101A5000FFF7F3FA6060206801282CD046A0FFF75A
:101A6000CDFD4FF47A70FEF7ABFB46A0FFF7C6FD45
:101A70002F481C30FFF76DFB0146606047A0FFF761
:101A8000BDFD606800280ADD4849C2B2A1F5867034
:101A9000FFF72CFD454A46A06168FFF7AFFD49A05E
:101AA000FFF7ACFDD7E74DA0FFF7A8FD00229FE7A9
:101AB000FFF70FFBCEE74DA0FFF7A0FD40F6C410E7
:101AC000FEF77EFB4DA0FFF799FD52A13748A268B3
:101AD000FFF7A4FDC1B2E06015482A461C30FFF7AD
:101AE000F8FA014660604EA0FFF788FD2F494FA02D
:101AF000FFF784FD2D49227B2B46A1F58670FFF769
:101B000055FB01466060A068401CA0604BA0FFF739
:101B100075FD4FA0C4E70000000C0140000000204C
:101B20004D6F64653A20536C6176650D0A000000C4
:101B30001C0000200008014084010020436F6E66F5
:101B400069677572696E67204C6F5261206D6F64B2
:101B5000756C650D0A000000446F6E6520636F6E42
:101B60006669677572696E67204C6F52614D6F646C
:101B7000756C650D0A000000536C617665202E2E91
:101B80002E0D0A00526563656976696E6720706183
:101B9000636B6167652E2E2E0D0A0000526563652A
:101BA000697665643A2025640D0A0000440100202E
:101BB000436F6E74656E7420282564293A2025735E
:101BC0000D0A00005061636B616765207265636593
:101BD00069766564202E2E2E0D0A00004D6F646517
:101BE0003A204D61737465720D0A00004D61737483
:101BF0006572202E2E2E0D0A0000000053656E64C3
:101C0000696E67207061636B6167652E2E2E0D0A09
:101C10000000000048656C6C6F2025640000000027
:101C2000456E7472793A2025640D0A0053656E641E
:101C3000696E672025730D0A000000005472616E02
:101C4000736D697373696F6E3A2025640D0A000025
:101C50005061636B6167652073656E742E2E2E0D67
:101C60000A0000006C8000FFFCF9F6060708090A6C
:101C70000B0C000102030405060708090000000020
:101C8000000000000102030406070809AC1C00085C
:101C9000000000201C00000044160008C81C0008BA
:101CA0001C000020C40500005416000800000000BD
:101CB0000000000000000000000000000000000024
:081CC00000A24A04000000002C
:04000005080000ED02
:00000001FF
